{
  "address": "0x8Dd5Bb1847780468cdA042463cbF3bf302403F44",
  "abi": [
    {
      "inputs": [],
      "stateMutability": "nonpayable",
      "type": "constructor"
    },
    {
      "inputs": [
        {
          "internalType": "address",
          "name": "_medalSale",
          "type": "address"
        }
      ],
      "name": "getAllBuyersBalances",
      "outputs": [
        {
          "internalType": "uint256[]",
          "name": "",
          "type": "uint256[]"
        }
      ],
      "stateMutability": "view",
      "type": "function"
    },
    {
      "inputs": [
        {
          "internalType": "address",
          "name": "_medalSale",
          "type": "address"
        }
      ],
      "name": "getAllBuyersContributions",
      "outputs": [
        {
          "internalType": "uint256[]",
          "name": "",
          "type": "uint256[]"
        }
      ],
      "stateMutability": "view",
      "type": "function"
    },
    {
      "inputs": [
        {
          "internalType": "address",
          "name": "_medalSale",
          "type": "address"
        }
      ],
      "name": "getBuyers",
      "outputs": [
        {
          "internalType": "address[]",
          "name": "",
          "type": "address[]"
        }
      ],
      "stateMutability": "view",
      "type": "function"
    },
    {
      "inputs": [],
      "name": "name",
      "outputs": [
        {
          "internalType": "string",
          "name": "",
          "type": "string"
        }
      ],
      "stateMutability": "view",
      "type": "function"
    }
  ],
  "transactionHash": "0xa8698adb1782f64029d3e04d246e0d5c3a2558c279ff2f91b5b01c14fbb9c545",
  "args": [],
  "numDeployments": 1,
  "solcInputHash": "532ae0efbf6dba9325cee750d16263b1",
  "bytecode": "0x6080604052348015600f57600080fd5b5061070b8061001f6000396000f3fe608060405234801561001057600080fd5b506004361061004c5760003560e01c806306fdde0314610051578063122df71b1461009757806315463061146100b75780631de15f19146100d7575b600080fd5b6100816040518060400160405280601181526020017026b2b230b61029b0b632902932b0b232b960791b81525081565b60405161008e9190610565565b60405180910390f35b6100aa6100a53660046105cb565b6100ea565b60405161008e91906105ef565b6100ca6100c53660046105cb565b61024d565b60405161008e919061063b565b6100ca6100e53660046105cb565b6103de565b606060008290506000816001600160a01b031663a88661f46040518163ffffffff1660e01b8152600401602060405180830381865afa158015610131573d6000803e3d6000fd5b505050506040513d601f19601f820116820180604052508101906101559190610673565b905060008167ffffffffffffffff8111156101725761017261068c565b60405190808252806020026020018201604052801561019b578160200160208202803683370190505b50905060005b8281101561024457604051631e55504360e31b8152600481018290526001600160a01b0385169063f2aa821890602401602060405180830381865afa1580156101ee573d6000803e3d6000fd5b505050506040513d601f19601f8201168201806040525081019061021291906106a2565b828281518110610224576102246106bf565b6001600160a01b03909216602092830291909101909101526001016101a1565b50949350505050565b606060008290506000816001600160a01b031663a88661f46040518163ffffffff1660e01b8152600401602060405180830381865afa158015610294573d6000803e3d6000fd5b505050506040513d601f19601f820116820180604052508101906102b89190610673565b905060006102c5856100ea565b905060008267ffffffffffffffff8111156102e2576102e261068c565b60405190808252806020026020018201604052801561030b578160200160208202803683370190505b50905060005b82518110156103d457846001600160a01b031663ad845c1384838151811061033b5761033b6106bf565b60200260200101516040518263ffffffff1660e01b815260040161036e91906001600160a01b0391909116815260200190565b602060405180830381865afa15801561038b573d6000803e3d6000fd5b505050506040513d601f19601f820116820180604052508101906103af9190610673565b8282815181106103c1576103c16106bf565b6020908102919091010152600101610311565b5095945050505050565b606060008290506000816001600160a01b031663a88661f46040518163ffffffff1660e01b8152600401602060405180830381865afa158015610425573d6000803e3d6000fd5b505050506040513d601f19601f820116820180604052508101906104499190610673565b90506000610456856100ea565b905060008267ffffffffffffffff8111156104735761047361068c565b60405190808252806020026020018201604052801561049c578160200160208202803683370190505b50905060005b82518110156103d457846001600160a01b031663ad845c138483815181106104cc576104cc6106bf565b60200260200101516040518263ffffffff1660e01b81526004016104ff91906001600160a01b0391909116815260200190565b602060405180830381865afa15801561051c573d6000803e3d6000fd5b505050506040513d601f19601f820116820180604052508101906105409190610673565b828281518110610552576105526106bf565b60209081029190910101526001016104a2565b602081526000825180602084015260005b818110156105935760208186018101516040868401015201610576565b506000604082850101526040601f19601f83011684010191505092915050565b6001600160a01b03811681146105c857600080fd5b50565b6000602082840312156105dd57600080fd5b81356105e8816105b3565b9392505050565b602080825282518282018190526000918401906040840190835b818110156106305783516001600160a01b0316835260209384019390920191600101610609565b509095945050505050565b602080825282518282018190526000918401906040840190835b81811015610630578351835260209384019390920191600101610655565b60006020828403121561068557600080fd5b5051919050565b634e487b7160e01b600052604160045260246000fd5b6000602082840312156106b457600080fd5b81516105e8816105b3565b634e487b7160e01b600052603260045260246000fdfea2646970667358221220986bc8beff8de4ab0dd1d2aeda0952e37791feafd6da97ded910bf8a4285810064736f6c634300081a0033",
  "devdoc": {
    "kind": "dev",
    "methods": {},
    "version": 1
  },
  "userdoc": {
    "kind": "user",
    "methods": {},
    "version": 1
  },
  "storageLayout": {
    "storage": [],
    "types": null
  }
}