{
  "address": "0xA85Ab2084D5DeB521ab0268840938dC0FE114368",
  "abi": [
    {
      "inputs": [
        {
          "internalType": "address",
          "name": "_medal",
          "type": "address"
        }
      ],
      "stateMutability": "nonpayable",
      "type": "constructor"
    },
    {
      "inputs": [
        {
          "internalType": "address",
          "name": "owner",
          "type": "address"
        }
      ],
      "name": "OwnableInvalidOwner",
      "type": "error"
    },
    {
      "inputs": [
        {
          "internalType": "address",
          "name": "account",
          "type": "address"
        }
      ],
      "name": "OwnableUnauthorizedAccount",
      "type": "error"
    },
    {
      "inputs": [],
      "name": "ReentrancyGuardReentrantCall",
      "type": "error"
    },
    {
      "anonymous": false,
      "inputs": [
        {
          "indexed": false,
          "internalType": "address",
          "name": "buyer",
          "type": "address"
        },
        {
          "indexed": false,
          "internalType": "uint256",
          "name": "amount",
          "type": "uint256"
        }
      ],
      "name": "Bought",
      "type": "event"
    },
    {
      "anonymous": false,
      "inputs": [
        {
          "indexed": true,
          "internalType": "address",
          "name": "previousOwner",
          "type": "address"
        },
        {
          "indexed": true,
          "internalType": "address",
          "name": "newOwner",
          "type": "address"
        }
      ],
      "name": "OwnershipTransferred",
      "type": "event"
    },
    {
      "anonymous": false,
      "inputs": [
        {
          "indexed": false,
          "internalType": "uint256",
          "name": "tokensPerEth",
          "type": "uint256"
        }
      ],
      "name": "SaleComplete",
      "type": "event"
    },
    {
      "anonymous": false,
      "inputs": [
        {
          "indexed": false,
          "internalType": "address",
          "name": "buyer",
          "type": "address"
        },
        {
          "indexed": false,
          "internalType": "uint256",
          "name": "amount",
          "type": "uint256"
        }
      ],
      "name": "Withdrawn",
      "type": "event"
    },
    {
      "inputs": [
        {
          "internalType": "address",
          "name": "_buyer",
          "type": "address"
        }
      ],
      "name": "_buyTokens",
      "outputs": [],
      "stateMutability": "payable",
      "type": "function"
    },
    {
      "inputs": [
        {
          "internalType": "address[]",
          "name": "_addresses",
          "type": "address[]"
        }
      ],
      "name": "addBatchToBonusWhitelist",
      "outputs": [],
      "stateMutability": "nonpayable",
      "type": "function"
    },
    {
      "inputs": [
        {
          "internalType": "address",
          "name": "_address",
          "type": "address"
        }
      ],
      "name": "addToBonusWhitelist",
      "outputs": [],
      "stateMutability": "nonpayable",
      "type": "function"
    },
    {
      "inputs": [
        {
          "internalType": "address",
          "name": "",
          "type": "address"
        }
      ],
      "name": "addressBonusEarned",
      "outputs": [
        {
          "internalType": "uint256",
          "name": "",
          "type": "uint256"
        }
      ],
      "stateMutability": "view",
      "type": "function"
    },
    {
      "inputs": [
        {
          "internalType": "address",
          "name": "",
          "type": "address"
        }
      ],
      "name": "addressEthSpent",
      "outputs": [
        {
          "internalType": "uint256",
          "name": "",
          "type": "uint256"
        }
      ],
      "stateMutability": "view",
      "type": "function"
    },
    {
      "inputs": [],
      "name": "allowRefunds",
      "outputs": [],
      "stateMutability": "nonpayable",
      "type": "function"
    },
    {
      "inputs": [],
      "name": "bonusEthSpent",
      "outputs": [
        {
          "internalType": "uint256",
          "name": "",
          "type": "uint256"
        }
      ],
      "stateMutability": "view",
      "type": "function"
    },
    {
      "inputs": [
        {
          "internalType": "address",
          "name": "",
          "type": "address"
        }
      ],
      "name": "bonusWhitelist",
      "outputs": [
        {
          "internalType": "bool",
          "name": "",
          "type": "bool"
        }
      ],
      "stateMutability": "view",
      "type": "function"
    },
    {
      "inputs": [],
      "name": "buyTokens",
      "outputs": [],
      "stateMutability": "payable",
      "type": "function"
    },
    {
      "inputs": [
        {
          "internalType": "uint256",
          "name": "",
          "type": "uint256"
        }
      ],
      "name": "buyers",
      "outputs": [
        {
          "internalType": "address",
          "name": "",
          "type": "address"
        }
      ],
      "stateMutability": "view",
      "type": "function"
    },
    {
      "inputs": [],
      "name": "buyersLength",
      "outputs": [
        {
          "internalType": "uint256",
          "name": "",
          "type": "uint256"
        }
      ],
      "stateMutability": "view",
      "type": "function"
    },
    {
      "inputs": [
        {
          "internalType": "uint256",
          "name": "_endTime",
          "type": "uint256"
        }
      ],
      "name": "changeEndTime",
      "outputs": [],
      "stateMutability": "nonpayable",
      "type": "function"
    },
    {
      "inputs": [],
      "name": "claimFractions",
      "outputs": [],
      "stateMutability": "nonpayable",
      "type": "function"
    },
    {
      "inputs": [],
      "name": "closeSale",
      "outputs": [],
      "stateMutability": "nonpayable",
      "type": "function"
    },
    {
      "inputs": [],
      "name": "ethRaised",
      "outputs": [
        {
          "internalType": "uint256",
          "name": "",
          "type": "uint256"
        }
      ],
      "stateMutability": "view",
      "type": "function"
    },
    {
      "inputs": [],
      "name": "medal",
      "outputs": [
        {
          "internalType": "contract IERC20",
          "name": "",
          "type": "address"
        }
      ],
      "stateMutability": "view",
      "type": "function"
    },
    {
      "inputs": [],
      "name": "medalTreasury",
      "outputs": [
        {
          "internalType": "address payable",
          "name": "",
          "type": "address"
        }
      ],
      "stateMutability": "view",
      "type": "function"
    },
    {
      "inputs": [],
      "name": "openSale",
      "outputs": [],
      "stateMutability": "nonpayable",
      "type": "function"
    },
    {
      "inputs": [],
      "name": "owner",
      "outputs": [
        {
          "internalType": "address",
          "name": "",
          "type": "address"
        }
      ],
      "stateMutability": "view",
      "type": "function"
    },
    {
      "inputs": [],
      "name": "platformFeeDestination",
      "outputs": [
        {
          "internalType": "address payable",
          "name": "",
          "type": "address"
        }
      ],
      "stateMutability": "view",
      "type": "function"
    },
    {
      "inputs": [],
      "name": "refund",
      "outputs": [],
      "stateMutability": "nonpayable",
      "type": "function"
    },
    {
      "inputs": [],
      "name": "renounceOwnership",
      "outputs": [],
      "stateMutability": "nonpayable",
      "type": "function"
    },
    {
      "inputs": [],
      "name": "resetSale",
      "outputs": [],
      "stateMutability": "nonpayable",
      "type": "function"
    },
    {
      "inputs": [],
      "name": "saleEndTime",
      "outputs": [
        {
          "internalType": "uint256",
          "name": "",
          "type": "uint256"
        }
      ],
      "stateMutability": "view",
      "type": "function"
    },
    {
      "inputs": [],
      "name": "saleStatus",
      "outputs": [
        {
          "internalType": "enum MedalSale.Status",
          "name": "",
          "type": "uint8"
        }
      ],
      "stateMutability": "view",
      "type": "function"
    },
    {
      "inputs": [],
      "name": "softCap",
      "outputs": [
        {
          "internalType": "uint256",
          "name": "",
          "type": "uint256"
        }
      ],
      "stateMutability": "view",
      "type": "function"
    },
    {
      "inputs": [],
      "name": "sweepTokens",
      "outputs": [],
      "stateMutability": "nonpayable",
      "type": "function"
    },
    {
      "inputs": [],
      "name": "tokensAvailable",
      "outputs": [
        {
          "internalType": "uint256",
          "name": "",
          "type": "uint256"
        }
      ],
      "stateMutability": "view",
      "type": "function"
    },
    {
      "inputs": [],
      "name": "tokensPerEth",
      "outputs": [
        {
          "internalType": "uint256",
          "name": "",
          "type": "uint256"
        }
      ],
      "stateMutability": "view",
      "type": "function"
    },
    {
      "inputs": [
        {
          "internalType": "address",
          "name": "newOwner",
          "type": "address"
        }
      ],
      "name": "transferOwnership",
      "outputs": [],
      "stateMutability": "nonpayable",
      "type": "function"
    },
    {
      "inputs": [],
      "name": "withdrawEth",
      "outputs": [],
      "stateMutability": "nonpayable",
      "type": "function"
    },
    {
      "stateMutability": "payable",
      "type": "receive"
    }
  ],
  "transactionHash": "0x9931f2b20618912b4c0c876b6c1de108d92a952a99081d08fffdebaff9f9385e",
  "args": [
    "0xF9ce26376B692dAD48f853AAAfDD632050c9b09d"
  ],
  "numDeployments": 1,
  "solcInputHash": "eb8f8d362f40c15821f4b74e448104ff",
  "bytecode": "0x60a06040526366c72840600a5534801561001857600080fd5b50604051611707380380611707833981016040819052610037916100cf565b6001600055338061006257604051631e4fbdf760e01b81526000600482015260240160405180910390fd5b61006b8161007d565b506001600160a01b03166080526100ff565b600180546001600160a01b038381166001600160a01b0319831681179093556040519116919082907f8be0079c531659141344cd1fd0a4f28419497f9722a3daafe3b4186f6b6457e090600090a35050565b6000602082840312156100e157600080fd5b81516001600160a01b03811681146100f857600080fd5b9392505050565b6080516115d16101366000396000818161033c01528181610c1201528181610cc101528181610db2015261101601526115d16000f3fe6080604052600436106101dc5760003560e01c80639c70147111610102578063d0febe4c11610095578063f2aa821811610064578063f2aa821814610523578063f2fde38b14610543578063f9020e3314610563578063fddf0fc01461058a57600080fd5b8063d0febe4c146104b0578063e0646014146104b8578063ed338ff1146104f8578063ee55efee1461050e57600080fd5b8063ae3a725a116100d1578063ae3a725a1461045a578063c1e1d95414610470578063cbdd69b514610485578063cc76ac061461049b57600080fd5b80639c701471146103d6578063a0ef91df14610403578063a88661f414610418578063ad845c131461042d57600080fd5b806359c656df1161017a5780638925dbcc116101495780638925dbcc1461035e5780638da5cb5b14610373578063906a26e0146103915780639588daf0146103ae57600080fd5b806359c656df146102d357806360659a92146102e8578063715018a61461031557806381f237b81461032a57600080fd5b80633052b75e116101b65780633052b75e1461023957806348df2eb5146102595780634a1adf8914610279578063590e1ae3146102be57600080fd5b80630cf7422d146101f1578063167ff46f146102115780631f5e881f1461022657600080fd5b366101ec576101ea336105a0565b005b600080fd5b3480156101fd57600080fd5b506101ea61020c366004611386565b6108ce565b34801561021d57600080fd5b506101ea610938565b6101ea610234366004611456565b6105a0565b34801561024557600080fd5b506101ea610254366004611478565b6109bc565b34801561026557600080fd5b506101ea610274366004611456565b610a27565b34801561028557600080fd5b506102a173f87eaea53f15189385a5fb33b6ad0c61c6047d4781565b6040516001600160a01b0390911681526020015b60405180910390f35b3480156102ca57600080fd5b506101ea610a53565b3480156102df57600080fd5b506101ea610b67565b3480156102f457600080fd5b506103076a108b2a2c2802909400000081565b6040519081526020016102b5565b34801561032157600080fd5b506101ea610be0565b34801561033657600080fd5b506102a17f000000000000000000000000000000000000000000000000000000000000000081565b34801561036a57600080fd5b506101ea610bf2565b34801561037f57600080fd5b506001546001600160a01b03166102a1565b34801561039d57600080fd5b506103076815af1d78b58c40000081565b3480156103ba57600080fd5b506102a173c3cc6d2db567af6669bec02c8084e71b1714643a81565b3480156103e257600080fd5b506103076103f1366004611456565b60036020526000908152604090205481565b34801561040f57600080fd5b506101ea610de9565b34801561042457600080fd5b50600454610307565b34801561043957600080fd5b50610307610448366004611456565b60026020526000908152604090205481565b34801561046657600080fd5b5061030760065481565b34801561047c57600080fd5b506101ea610edc565b34801561049157600080fd5b5061030760085481565b3480156104a757600080fd5b506101ea610ef8565b6101ea6110c1565b3480156104c457600080fd5b506104e86104d3366004611456565b60056020526000908152604090205460ff1681565b60405190151581526020016102b5565b34801561050457600080fd5b50610307600a5481565b34801561051a57600080fd5b506101ea6110ca565b34801561052f57600080fd5b506102a161053e366004611478565b611246565b34801561054f57600080fd5b506101ea61055e366004611456565b611270565b34801561056f57600080fd5b5060095461057d9060ff1681565b6040516102b591906114a7565b34801561059657600080fd5b5061030760075481565b6105a86112ab565b600160095460ff1660048111156105c1576105c1611491565b146106085760405162461bcd60e51b815260206004820152601260248201527153616c65206973206e6f742061637469766560701b60448201526064015b60405180910390fd5b600a5442106106515760405162461bcd60e51b815260206004820152601560248201527414d85b19481d1a5b59481a185cc8195b185c1cd959605a1b60448201526064016105ff565b6000341161068f5760405162461bcd60e51b815260206004820152600b60248201526a139bc8115512081cd95b9d60aa1b60448201526064016105ff565b6001600160a01b038116600090815260056020526040902054349060ff161561074a5760006106bf6004346114e5565b6001600160a01b0384166000908152600260205260408120805492935034929091906106ec908490611507565b90915550506001600160a01b03831660009081526003602052604081208054839290610719908490611507565b9250508190555080600660008282546107329190611507565b9091555061074290508183611507565b915050610778565b6001600160a01b03821660009081526002602052604081208054349290610772908490611507565b90915550505b60045460008190036107d457600480546001810182556000919091527f8a35acfbc15ff81a39ae7d344fd709f28e8600b4aa8c65c6b64bfe7fe36bd19b0180546001600160a01b0319166001600160a01b03851617905561087d565b60005b8181101561087b57836001600160a01b0316600482815481106107fc576107fc611520565b6000918252602090912001546001600160a01b03161461087b57610821600183611536565b810361087357600480546001810182556000919091527f8a35acfbc15ff81a39ae7d344fd709f28e8600b4aa8c65c6b64bfe7fe36bd19b0180546001600160a01b0319166001600160a01b0386161790555b6001016107d7565b505b604080516001600160a01b0385168152602081018490527fc55650ccda1011e1cdc769b1fbf546ebb8c97800b6072b49e06cd560305b1d67910160405180910390a150506108cb6001600055565b50565b6108d66112d5565b60005b8151811015610934576001600560008484815181106108fa576108fa611520565b6020908102919091018101516001600160a01b03168252810191909152604001600020805460ff19169115159190911790556001016108d9565b5050565b6109406112d5565b600060095460ff16600481111561095957610959611491565b146109a65760405162461bcd60e51b815260206004820152601860248201527f53616c652068617320616c72656164792073746172746564000000000000000060448201526064016105ff565b600980546001919060ff191682805b0217905550565b6109c46112d5565b600260095460ff1660048111156109dd576109dd611491565b03610a225760405162461bcd60e51b815260206004820152601560248201527414d85b194818d85b9b9bdd0818994818db1bdcd959605a1b60448201526064016105ff565b600a55565b610a2f6112d5565b6001600160a01b03166000908152600560205260409020805460ff19166001179055565b610a5b6112ab565b600460095460ff166004811115610a7457610a74611491565b14610ac15760405162461bcd60e51b815260206004820152601760248201527f526566756e647320617265206e6f7420616c6c6f77656400000000000000000060448201526064016105ff565b3360009081526002602052604090205480610b115760405162461bcd60e51b815260206004820152601060248201526f139bc8115512081d1bc81c99599d5b9960821b60448201526064016105ff565b33600081815260026020908152604080832083905560039091528082208290555183156108fc0291849190818181858888f19350505050158015610b59573d6000803e3d6000fd5b5050610b656001600055565b565b610b6f6112d5565b600160095460ff166004811115610b8857610b88611491565b14610bcc5760405162461bcd60e51b815260206004820152601460248201527353616c65206d757374206265206f6e676f696e6760601b60448201526064016105ff565b600980546004919060ff19166001836109b5565b610be86112d5565b610b656000611302565b610bfa6112d5565b6040516370a0823160e01b81523060048201526000907f00000000000000000000000000000000000000000000000000000000000000006001600160a01b0316906370a0823190602401602060405180830381865afa158015610c61573d6000803e3d6000fd5b505050506040513d601f19601f82011682018060405250810190610c859190611549565b9050600060095460ff166004811115610ca057610ca0611491565b03610d375760405163a9059cbb60e01b8152336004820152602481018290527f00000000000000000000000000000000000000000000000000000000000000006001600160a01b03169063a9059cbb906044015b6020604051808303816000875af1158015610d13573d6000803e3d6000fd5b505050506040513d601f19601f820116820180604052508101906109349190611562565b600a54610d479062278d00611507565b421015610d965760405162461bcd60e51b815260206004820152601760248201527f43616e6e6f7420737765657020746f6b656e732079657400000000000000000060448201526064016105ff565b60405163a9059cbb60e01b8152336004820152602481018290527f00000000000000000000000000000000000000000000000000000000000000006001600160a01b03169063a9059cbb90604401610cf4565b610df16112d5565b600260095460ff166004811115610e0a57610e0a611491565b14610e4f5760405162461bcd60e51b815260206004820152601560248201527453616c65206d75737420626520636f6d706c65746560581b60448201526064016105ff565b4773f87eaea53f15189385a5fb33b6ad0c61c6047d476108fc610e736005846114e5565b6040518115909202916000818181858888f19350505050158015610e9b573d6000803e3d6000fd5b5060405173c3cc6d2db567af6669bec02c8084e71b1714643a904780156108fc02916000818181858888f19350505050158015610934573d6000803e3d6000fd5b610ee46112d5565b600980546000919060ff19166001836109b5565b600260095460ff166004811115610f1157610f11611491565b14610f555760405162461bcd60e51b815260206004820152601460248201527353616c65206973206e6f7420636f6d706c65746560601b60448201526064016105ff565b600854336000908152600360209081526040808320546002909252822054919291610f809190611507565b610f8a9190611584565b905060008111610fd15760405162461bcd60e51b81526020600482015260126024820152714e6f20746f6b656e7320746f20636c61696d60701b60448201526064016105ff565b3360008181526002602090815260408083208390556003909152808220919091555163a9059cbb60e01b81526004810191909152602481018290526001600160a01b037f0000000000000000000000000000000000000000000000000000000000000000169063a9059cbb906044016020604051808303816000875af115801561105f573d6000803e3d6000fd5b505050506040513d601f19601f820116820180604052508101906110839190611562565b5060408051338152602081018390527f7084f5476618d8e60b11ef0d7d3f06914655adb8793e28ff7f018d4c76d505d591015b60405180910390a150565b610b65336105a0565b6110d26112d5565b600160095460ff1660048111156110eb576110eb611491565b1461112e5760405162461bcd60e51b815260206004820152601360248201527253616c65206d7573742062652061637469766560681b60448201526064016105ff565b600a544210156111805760405162461bcd60e51b815260206004820152601960248201527f53616c652074696d65206e6565647320746f20656c617073650000000000000060448201526064016105ff565b6815af1d78b58c4000004710156111d95760405162461bcd60e51b815260206004820152601b60248201527f41756374696f6e2072657365727665206e6f742072656163686564000000000060448201526064016105ff565b6009805460ff191660021790556006546000906111f69047611507565b476007559050611211816a108b2a2c280290940000006114e5565b60088190556040519081527fef75b5a390479d0727b87d3987ed96018984bdd53fa4946005292453ec3ff76d906020016110b6565b6004818154811061125657600080fd5b6000918252602090912001546001600160a01b0316905081565b6112786112d5565b6001600160a01b0381166112a257604051631e4fbdf760e01b8152600060048201526024016105ff565b6108cb81611302565b6002600054036112ce57604051633ee5aeb560e01b815260040160405180910390fd5b6002600055565b6001546001600160a01b03163314610b655760405163118cdaa760e01b81523360048201526024016105ff565b600180546001600160a01b038381166001600160a01b0319831681179093556040519116919082907f8be0079c531659141344cd1fd0a4f28419497f9722a3daafe3b4186f6b6457e090600090a35050565b634e487b7160e01b600052604160045260246000fd5b80356001600160a01b038116811461138157600080fd5b919050565b60006020828403121561139857600080fd5b813567ffffffffffffffff8111156113af57600080fd5b8201601f810184136113c057600080fd5b803567ffffffffffffffff8111156113da576113da611354565b8060051b604051601f19603f830116810181811067ffffffffffffffff8211171561140757611407611354565b60405291825260208184018101929081018784111561142557600080fd5b6020850194505b8385101561144b5761143d8561136a565b81526020948501940161142c565b509695505050505050565b60006020828403121561146857600080fd5b6114718261136a565b9392505050565b60006020828403121561148a57600080fd5b5035919050565b634e487b7160e01b600052602160045260246000fd5b60208101600583106114c957634e487b7160e01b600052602160045260246000fd5b91905290565b634e487b7160e01b600052601160045260246000fd5b60008261150257634e487b7160e01b600052601260045260246000fd5b500490565b8082018082111561151a5761151a6114cf565b92915050565b634e487b7160e01b600052603260045260246000fd5b8181038181111561151a5761151a6114cf565b60006020828403121561155b57600080fd5b5051919050565b60006020828403121561157457600080fd5b8151801515811461147157600080fd5b808202811582820484141761151a5761151a6114cf56fea26469706673582212208471182d81a01cd66e4269753affbdf738f6326fe50d02bd555b79d6869ac1eb64736f6c634300081a0033",
  "devdoc": {
    "errors": {
      "OwnableInvalidOwner(address)": [
        {
          "details": "The owner is not a valid owner account. (eg. `address(0)`)"
        }
      ],
      "OwnableUnauthorizedAccount(address)": [
        {
          "details": "The caller account is not authorized to perform an operation."
        }
      ],
      "ReentrancyGuardReentrantCall()": [
        {
          "details": "Unauthorized reentrant call."
        }
      ]
    },
    "kind": "dev",
    "methods": {
      "changeEndTime(uint256)": {
        "params": {
          "_endTime": "Duration of the sale in unix timestamp"
        }
      },
      "owner()": {
        "details": "Returns the address of the current owner."
      },
      "renounceOwnership()": {
        "details": "Leaves the contract without owner. It will not be possible to call `onlyOwner` functions. Can only be called by the current owner. NOTE: Renouncing ownership will leave the contract without an owner, thereby disabling any functionality that is only available to the owner."
      },
      "transferOwnership(address)": {
        "details": "Transfers ownership of the contract to a new account (`newOwner`). Can only be called by the current owner."
      }
    },
    "version": 1
  },
  "userdoc": {
    "kind": "user",
    "methods": {},
    "version": 1
  },
  "storageLayout": {
    "storage": [
      {
        "astId": 266,
        "contract": "contracts/EthToTokenSale.sol:MedalSale",
        "label": "_status",
        "offset": 0,
        "slot": "0",
        "type": "t_uint256"
      },
      {
        "astId": 8,
        "contract": "contracts/EthToTokenSale.sol:MedalSale",
        "label": "_owner",
        "offset": 0,
        "slot": "1",
        "type": "t_address"
      },
      {
        "astId": 354,
        "contract": "contracts/EthToTokenSale.sol:MedalSale",
        "label": "addressEthSpent",
        "offset": 0,
        "slot": "2",
        "type": "t_mapping(t_address,t_uint256)"
      },
      {
        "astId": 358,
        "contract": "contracts/EthToTokenSale.sol:MedalSale",
        "label": "addressBonusEarned",
        "offset": 0,
        "slot": "3",
        "type": "t_mapping(t_address,t_uint256)"
      },
      {
        "astId": 361,
        "contract": "contracts/EthToTokenSale.sol:MedalSale",
        "label": "buyers",
        "offset": 0,
        "slot": "4",
        "type": "t_array(t_address)dyn_storage"
      },
      {
        "astId": 375,
        "contract": "contracts/EthToTokenSale.sol:MedalSale",
        "label": "bonusWhitelist",
        "offset": 0,
        "slot": "5",
        "type": "t_mapping(t_address,t_bool)"
      },
      {
        "astId": 377,
        "contract": "contracts/EthToTokenSale.sol:MedalSale",
        "label": "bonusEthSpent",
        "offset": 0,
        "slot": "6",
        "type": "t_uint256"
      },
      {
        "astId": 379,
        "contract": "contracts/EthToTokenSale.sol:MedalSale",
        "label": "ethRaised",
        "offset": 0,
        "slot": "7",
        "type": "t_uint256"
      },
      {
        "astId": 381,
        "contract": "contracts/EthToTokenSale.sol:MedalSale",
        "label": "tokensPerEth",
        "offset": 0,
        "slot": "8",
        "type": "t_uint256"
      },
      {
        "astId": 390,
        "contract": "contracts/EthToTokenSale.sol:MedalSale",
        "label": "saleStatus",
        "offset": 0,
        "slot": "9",
        "type": "t_enum(Status)387"
      },
      {
        "astId": 393,
        "contract": "contracts/EthToTokenSale.sol:MedalSale",
        "label": "saleEndTime",
        "offset": 0,
        "slot": "10",
        "type": "t_uint256"
      }
    ],
    "types": {
      "t_address": {
        "encoding": "inplace",
        "label": "address",
        "numberOfBytes": "20"
      },
      "t_array(t_address)dyn_storage": {
        "base": "t_address",
        "encoding": "dynamic_array",
        "label": "address[]",
        "numberOfBytes": "32"
      },
      "t_bool": {
        "encoding": "inplace",
        "label": "bool",
        "numberOfBytes": "1"
      },
      "t_enum(Status)387": {
        "encoding": "inplace",
        "label": "enum MedalSale.Status",
        "numberOfBytes": "1"
      },
      "t_mapping(t_address,t_bool)": {
        "encoding": "mapping",
        "key": "t_address",
        "label": "mapping(address => bool)",
        "numberOfBytes": "32",
        "value": "t_bool"
      },
      "t_mapping(t_address,t_uint256)": {
        "encoding": "mapping",
        "key": "t_address",
        "label": "mapping(address => uint256)",
        "numberOfBytes": "32",
        "value": "t_uint256"
      },
      "t_uint256": {
        "encoding": "inplace",
        "label": "uint256",
        "numberOfBytes": "32"
      }
    }
  }
}